S01500004144435F496E746572666163652E7372656357
S11300000C943A000C9457000C9457000C9457002D
S11300100C9457000C9457000C9457000C94570000
S11300200C9457000C9457000C9457000C945700F0
S11300300C9457000C9457000C9457000C945700E0
S11300400C9457000C9457000C9457000C945700D0
S11300500C9457008F039E03AD03BC03CB03D90359
S1130060E703F503100414041B0424042F043A04C6
S11300704704550411241FBECFE5D8E0DEBFCDBF31
S113008010E0A0E6B0E0E4E9FCE002C005900D92C7
S1130090A238B107D9F720E0A2E8B0E001C01D9270
S11300A0A338B207E1F70E9489020C9448060C9425
S11300B00000CF93C82F40E061E088E390E00E9405
S11300C0820340E062E088E390E00E94820341E022
S11300D063E088E390E00E9482038FE39FE101974D
S11300E0F1F700C000008BB38F708BBB8BB39C2FD8
S11300F0907F892B8BBB8FE39FE10197F1F700C0C1
S1130100000040E063E088E390E00E9482038FE314
S11301109FE10197F1F700C0000041E063E088E34C
S113012090E00E9482038FE39FE10197F1F700C002
S113013000008BB38F708BBB8BB3C295C07FC82B71
S1130140CBBB8FE39FE10197F1F700C0000040E0D3
S113015063E088E390E00E9482038FE39FE10197CC
S1130160F1F700C00000CF910895CF93C82F41E06C
S113017061E088E390E00E94820340E062E088E36B
S113018090E00E94820341E063E088E390E00E94F3
S113019082038FE39FE10197F1F700C000008BB366
S11301A08F708BBB8BB39C2F907F892B8BBB8FE382
S11301B09FE10197F1F700C0000040E063E088E3AD
S11301C090E00E9482038FE39FE10197F1F700C062
S11301D0000041E063E088E390E00E9482038FE343
S11301E09FE10197F1F700C000008BB38F708BBBC8
S11301F08BB3C295C07FC82BCBBB8FE39FE1019724
S1130200F1F700C0000040E063E088E390E00E9462
S113021082038FE39FE10197F1F700C00000CF91C3
S11302200895CF93DF93EC0103C00E94B50021969B
S113023088818111FACFDF91CF910895CF93DF9315
S1130240CDB7DEB761970FB6F894DEBF0FBECDBF52
S11302504AE0BE016F5F7F4F90E00E941306CE011B
S113026001960E94110161960FB6F894DEBF0FBE8D
S1130270CDBFDF91CF91089581E00E945900089588
S11302802FEF89EF90E0215080409040E1F700C0CB
S1130290000041E061E087E390E00E94640341E0F4
S11302A062E087E390E00E94640341E063E087E357
S11302B090E00E9464038AB3806F8ABB82E00E944C
S11302C0590088E20E9459008CE00E9459000E9463
S11302D03C01089580E790E00E94E20208950F93A4
S11302E01F93CF93DF9300D0CDB7DEB71A82198264
S11302F080917200882341F0813019F000E010E011
S113030005C00FEF13E002C00FEF10E08091700002
S11303100E942103BE016F5F7F4F80E790E00E943F
S11303202D0389819A819C01220F331F220F331FD1
S1130330820F931FB8010E94F905CB010F900F9013
S1130340DF91CF911F910F910895809170000E94C9
S113035027030895813059F018F0823079F0089518
S113036040E060E087E390E00E946403089540E089
S113037066E081E390E00E946403089540E062E057
S113038081E390E00E9464030895813021F120F01C
S1130390823009F43FC05DC060E086E390E00E94D3
S11303A0050490918200891781F02FEF89EF90E086
S11303B0215080409040E1F700C0000060E086E3F7
S11303C090E00E9405048093820060E086E390E060
S11303D00E940504089566E080E390E00E9405040D
S11303E090918200891781F02FEF89EF90E02150DE
S11303F080409040E1F700C0000066E080E390E0B8
S11304000E9405048093820066E080E390E00E94ED
S11304100504089562E080E390E00E940504909151
S11304208200891781F02FEF89EF90E021508040FE
S11304309040E1F700C0000062E080E390E00E9499
S113044005048093820062E080E390E00E9405044A
S1130450089580E0089589E790E00E94E2020895FB
S1130460CF92DF92EF92FF920F931F93CF93DF937C
S113047000D0CDB7DEB71A82198209E710E0F8017F
S113048080810E942103BE016F5F7F4FC8010E94DB
S11304902D03F8018281882329F0813031F000E0B6
S11304A010E005C00FEF10E002C00FEF13E0698108
S11304B07A8180E090E00E94FE0420E030E040EA8F
S11304C050E40E948C0520E030E048EC52E40E94A5
S11304D08C056B017C01B80180E090E00E94FE0471
S11304E09B01AC01C701B6010E945D040E94CF04C8
S11304F0862F0F900F90DF91CF911F910F91FF9056
S1130500EF90DF90CF900895809179000E942703A7
S113051008950E946A010E942B020E94400180E01B
S11305200E94AA0181E00E94AA0180E00E94C50104
S11305308823F1F00E943002C82F0E943C018C2FC6
S11305400E941E0180E690E00E9411012FEF89E6CF
S113055098E1215080409040E1F700C0000081E024
S11305600E94C501882331F30E9484020E943C0149
S113057081E00E94C5018823C1F20E946F01C82F47
S11305800E943C018C2F0E941E0189E690E00E948B
S113059011012FEF89E698E1215080409040E1F766
S11305A000C0000080E00E94C501882331F30E944E
S11305B0A5010E943C01B9CF349902C080E008959E
S11305C081E00895FC0117B816B880B78F7180BF19
S11305D08081811132C097B18181892B87B986814D
S11305E0813021F038F0823059F011C086B18F7D0E
S11305F086B90DC086B1806286B980B780BF07C056
S113060086B1806286B990B78085892B80BF82814C
S1130610882319F0813029F008C087B1806287B936
S113062004C097B18381892B87B996B18581892BC1
S113063086B996B18781892B86B986B1806886B9D7
S11306400895811103C086B1806486B9089581112B
S113065003C086B18F7B86B908950F931F93CF9300
S1130660DF93FC012081211127C08B01EC0187B1AC
S1130670807E87B997B18481892B87B90E94DC0277
S11306808823E1F38A81882319F0813039F014C07A
S113069085B190E0F801918380830EC084B195B157
S11306A00024880F991F001C880F991F001C892F94
S11306B0902DF8019183808386B1806186B9DF91A2
S11306C0CF911F910F910895442319F0413071F097
S11306D00895FC01408121E030E002C0220F331F65
S11306E06A95E2F72095242320830895FC01408134
S11306F021E030E002C0220F331F6A95E2F7242B79
S1130700208308950F931F93062F10E008301105DE
S113071008F078C0F801E65DFF4F0C940D06442301
S113072041F0413009F06EC0FC012081216020833A
S113073069C0FC0120812E7F208364C0442341F0E2
S1130740413009F05FC0FC012081226020835AC03F
S1130750FC0120812D7F208355C0442341F041308A
S113076009F050C0FC012081246020834BC0FC01AF
S113077020812B7F208346C0442341F0413009F07F
S113078041C0FC012081286020833CC0FC01208101
S1130790277F208337C0442339F0413099F5FC0189
S11307A02081206120832EC0FC0120812F7E2083A4
S11307B029C0442339F0413029F5FC01208120620D
S11307C0208320C0FC0120812F7D20831BC0442373
S11307D039F04130B9F4FC0120812064208312C037
S11307E0FC0120812F7B20830DC0442339F041304C
S11307F049F4FC0120812068208304C0FC0120818D
S11308002F7720831F910F910895462F50E0483091
S1130810510508F050C0FA01EE5CFF4F0C940D0630
S1130820FC01808181700895FC018081827090E0D8
S1130830969587950895FC018081847090E0969543
S11308408795969587950895FC018081887090E03E
S11308509695879596958795969587950895FC0125
S11308608081807190E0929582958F7089279F7026
S113087089270895FC018081807290E09695879580
S1130880929582958F7089279F7089270895FC011E
S11308908081807490E00024880F991F001C880FC9
S11308A0991F001C892F902D0895FC018081881FB9
S11308B08827881F089580E008950E9471040C948D
S11308C052050E944B0558F00E94440540F029F45B
S11308D05F3F29F00C943B0551110C9486050C9450
S11308E041050E94630568F39923B1F3552391F3FD
S11308F0951B550BBB27AA2762177307840738F08B
S11309009F5F5F4F220F331F441FAA1FA9F335D0E7
S11309100E2E3AF0E0E832D091505040E695001C9B
S1130920CAF72BD0FE2F29D0660F771F881FBB1F55
S1130930261737074807AB07B0E809F0BB0B802D33
S1130940BF01FF2793585F4F3AF09E3F510578F05F
S11309500C943B050C9486055F3FE4F3983ED4F376
S1130960869577956795B795F7959F5FC9F7880F33
S1130970911D9695879597F90895E1E0660F771F85
S1130980881FBB1F621773078407BA0720F0621B16
S1130990730B840BBA0BEE1F88F7E09508950E9441
S11309A06B0588F09F5798F0B92F9927B751B0F08D
S11309B0E1F0660F771F881F991F1AF0BA95C9F7DF
S11309C014C0B13091F00E948505B1E008950C94F3
S11309D08505672F782F8827B85F39F0B93FCCF3A6
S11309E0869577956795B395D9F73EF4909580955C
S11309F0709561957F4F8F4F9F4F0895E89409C07C
S1130A0097FB3EF490958095709561957F4F8F4F3D
S1130A109F4F9923A9F0F92F96E9BB279395F69553
S1130A20879577956795B795F111F8CFFAF4BB0FD1
S1130A3011F460FF1BC06F5F7F4F8F4F9F4F16C035
S1130A40882311F096E911C0772321F09EE8872FBF
S1130A50762F05C0662371F096E8862F70E060E07B
S1130A602AF09A95660F771F881FDAF7880F9695F4
S1130A70879597F9089597F99F6780E870E060E09B
S1130A8008959FEF80EC089500240A941616170623
S1130A9018060906089500240A941216130614066B
S1130AA005060895092E0394000C11F4882352F0CE
S1130AB0BB0F40F4BF2B11F460FF04C06F5F7F4F86
S1130AC08F4F9F4F089557FD9058440F551F59F06D
S1130AD05F3F71F04795880F97FB991F61F09F3F27
S1130AE079F087950895121613061406551FF2CF50
S1130AF04695F1DF08C0161617061806991FF1CFA0
S1130B0086957105610508940895E894BB276627C6
S1130B107727CB0197F908950E949F050C945205FD
S1130B200E94440538F00E944B0520F0952311F0F3
S1130B300C943B050C94410511240C9486050E94E9
S1130B40630570F3959FC1F3950F50E0551F629FA5
S1130B50F001729FBB27F00DB11D639FAA27F00D12
S1130B60B11DAA1F649F6627B00DA11D661F829F39
S1130B702227B00DA11D621F739FB00DA11D621F1E
S1130B80839FA00D611D221F749F3327A00D611D3B
S1130B90231F849F600D211D822F762F6A2F11241D
S1130BA09F5750409AF0F1F088234AF0EE0FFF1F50
S1130BB0BB1F661F771F881F91505040A9F79E3FA7
S1130BC0510580F00C943B050C9486055F3FE4F3DB
S1130BD0983ED4F3869577956795B795F795E795FD
S1130BE09F5FC1F7FE2B880F911D9695879597F906
S1130BF00895AA1BBB1B51E107C0AA1FBB1FA61760
S1130C00B70710F0A61BB70B881F991F5A95A9F7B1
S1130C1080959095BC01CD010895EE0FFF1F0590BE
S1130C20F491E02D0994BB274A3031F4992322F43E
S1130C30BDE2909581959F4F0C941F06BB27FB0145
S1130C405527AA27880F991FAA1FA41710F0A41BC1
S1130C5083955051B9F7A05DAA3308F0A95DA1931B
S1130C60009779F7B111B1931192CB010C94380626
S1130C70DC01FC01672F71917723E1F7329704C0FF
S1130C807C916D9370836291AE17BF07C8F308958A
S1070C90F894FFCF02
S1130C942043656C736975730020566F6C7473001C
S1130CA40040012001000007000040002000000073
S1050CB4070033
S9030000FC
