:100000000C9432000C944F000C944F000C944F0051
:100010000C944F000C94C0000C944F000C949B0067
:100020000C944F000C944F000C9484000C944F00DF
:100030000C944F000C944F000C944F000C944F0004
:100040000C944F000C944F000C944F000C944F00F4
:100050000C944F0034013A01400146014C01520119
:1000600058015E0111241FBECFE5D8E0DEBFCDBF31
:1000700010E0A0E6B0E0E2E2F4E002C005900D92EC
:10008000A237B107D9F720E0A2E7B0E001C01D9286
:10009000A637B207E1F70E94D7000C940F020C9428
:1000A0000000813059F018F0823079F0089541E075
:1000B00062E084E390E00E940C01089541E067E073
:1000C00084E390E00E940C01089541E063E081E345
:1000D00090E00E940C010895813051F018F08230B8
:1000E00069F0089562E085E390E00E942A01089596
:1000F00067E085E390E00E942A01089563E082E3CF
:1001000090E00E942A0108951F920F920FB60F925D
:1001100011248F939F9380917400909175000196A4
:1001200090937500809374009F918F910F900FBEF4
:100130000F901F9018951F920F920FB60F921124D7
:100140002F933F934F935F936F937F938F939F93DF
:10015000AF93BF93EF93FF9380E00E946C00FF91F9
:10016000EF91BF91AF919F918F917F916F915F912F
:100170004F913F912F910F900FBE0F901F901895A8
:100180001F920F920FB60F9211248F939F9380911D
:1001900072009091730001969093730080937200A7
:1001A0009F918F910F900FBE0F901F9018958CE626
:1001B00090E00E94780186E690E00E94780180E657
:1001C00090E00E94780181E00E94630180E00E943B
:1001D000510081E00E94510082E00E945100809114
:1001E0007400909175008738914038F081E00E944A
:1001F0006C001092750010927400809172009091C2
:100200007300813D934058F382E00E946C0010928D
:10021000730010927200E3CF442319F0413071F063
:100220000895FC01408121E030E002C0220F331F1D
:100230006A95E2F72095242320830895FC014081EC
:1002400021E030E002C0220F331F6A95E2F7242B31
:1002500020830895462F50E04830510598F5FA0163
:10026000E65DFF4F0C940902FC01308121E0232759
:1002700020830895FC01308122E023272083089504
:10028000FC01308124E0232720830895FC01308184
:1002900028E0232720830895FC01308120E12327D3
:1002A00020830895FC01308120E2232720830895D4
:1002B000FC01308120E4232720830895FC01208164
:1002C000205820830895882319F0813029F008955B
:1002D0008FB78F778FBF08958FB780688FBF0895CE
:1002E00019BC18BC1FBC1EBC89B7837C89BF08958C
:1002F000CF93DF93FC018081813069F120F082305F
:1003000009F456C083C013BE1CBE89B78C7F89BF59
:100310008181882319F0883041F017C083B783BFEB
:1003200099B78381892B89BF10C083B7886083BF49
:1003300029B79381892F90E0880F991F822B89BF5D
:100340009CB784818150892B8CBF93B78281892B84
:1003500083BF12BE5BC0EF010E94700189818823B8
:1003600019F0883071F01DC08EB58EBD29B79B8104
:10037000892F90E0880F991F880F991F822B89BFC2
:1003800010C08EB588608EBD29B79B8130E1939FE8
:10039000C0011124822B89BF8C819D8101979BBD57
:1003A0008ABD9EB58A81892B8EBD1DBC1CBC2EC00A
:1003B00015BC13BC89B78F7389BF8181882319F05D
:1003C000883061F01BC085B585BD29B7938130E4C5
:1003D000939FC0011124822B89BF10C085B588600E
:1003E00085BD29B7938130E8939FC0011124822BEA
:1003F00089BF93B584818150892B83BD80B7846088
:1004000080BF95B58281892B85BD14BCDF91CF91CA
:100410000895EE0FFF1F0590F491E02D0994F894D4
:02042000FFCF0C
:10042200020006010000010805011BB700080501D2
:02043200C80000
:00000001FF
