S018000042555A5A45525F496E746572666163652E737265633A
S11300000C943A000C9444000C9444000C94440066
S11300100C9444000C9444000C9444000C9444004C
S11300200C9444000C9444000C9444000C9444003C
S11300300C9444000C9444000C9444000C9444002C
S11300400C9444000C9444000C9444000C9444001C
S11300500C944400B000BD00CA00D700E300EF00D8
S1130060FB00070137013A014001480152015C01DC
S11300706801750111241FBECFE5D8E0DEBFCDBFF6
S11300800E947E010C94CC010C94000041E063E0DA
S113009080E00E945D000895882319F0813039F0D2
S11300A0089540E063E080E00E948E00089541E0FE
S11300B063E080E00E948E000895813041F080F07A
S11300C0823041F0833049F0E0E0F0E00BC0E7E338
S11300D0F0E008C0E4E3F0E005C0E1E3F0E002C0D2
S11300E0EAE3F0E0442319F0413069F008952081F7
S11300F081E090E002C0880F991F6A95E2F780952D
S1130100822380830895208181E090E002C0880FDB
S1130110991F6A95E2F7822B80830895CF93DF932A
S1130120813041F080F0823041F0833049F0C0E00A
S1130130D0E00BC0C8E3D0E008C0C5E3D0E005C000
S1130140C2E3D0E002C0CBE3D0E0862F90E0883059
S1130150910508F067C0FC01E65DFF4F0C94C601F1
S1130160442339F0413009F05DC08881816088837F
S113017059C088818E7F888355C0442339F041302B
S113018009F050C08881826088834CC088818D7F4B
S1130190888348C0442339F0413009F043C0888142
S11301A0846088833FC088818B7F88833BC04423DD
S11301B031F04130B9F588818860888333C0888103
S11301C0877F88832FC0442331F0413059F58881DB
S11301D08061888327C088818F7E888323C04423DD
S11301E031F04130F9F48881806288831BC08881B2
S11301F08F7D888317C0442331F0413099F488817E
S1130200806488830FC088818F7B88830BC04423DC
S113021031F0413039F488818068888303C0888153
S11302208F778883DF91CF910895CF93DF938130C7
S113023041F080F0823041F0833049F0C0E0D0E0FA
S11302400BC0C6E3D0E008C0C3E3D0E005C0C0E300
S1130250D0E002C0C9E3D0E0862F90E08830910559
S113026008F048C0FC01EE5CFF4F0C94C601888185
S1130270817041C08881827090E0969587953BC0DB
S11302808881847090E0969587959695879533C07C
S11302908881887090E09695879596958795969530
S11302A0879529C08881807190E0929582958F709E
S11302B089279F7089271FC08881807290E0969556
S11302C08795929582958F7089279F70892713C08F
S11302D08881807490E00024880F991F001C880F87
S11302E0991F001C892F902D06C08881881F88279C
S11302F0881F01C080E0DF91CF91089580E00E94C3
S1130300970182E00E9497010E94460080E00E94CB
S1130310AF01882319F081E00E944C0082E00E9422
S1130320AF01882399F380E00E944C00EFCF813025
S113033051F018F0823069F0089540E060E081E007
S11303400E945D00089540E066E083E00E945D0045
S1130350089540E062E083E00E945D0008958130EA
S113036049F018F0823059F00FC060E081E00E943B
S11303701501089566E083E00E941501089562E086
S113038083E00E941501089580E00895EE0FFF1F99
S10F03900590F491E02D0994F894FFCF3F
S9030000FC
