:100000000C9432000C9447000C9447000C94470069
:100010000C9447000C9447000C9447000C94470044
:100020000C9447000C9447000C9447000C94470034
:100030000C9447000C9447000C9447000C94470024
:100040000C9447000C9447000C9447000C94470014
:100050000C9447009C00A900B600C300CF00DB0051
:10006000E700F30011241FBECFE5D8E0DEBFCDBF0F
:1000700010E0A0E6B0E0EEEBF2E002C005900D92D9
:10008000AA36B107D9F70E9401010C945D010C94C6
:100090000000813041F080F0823041F0833049F03F
:1000A000E0E0F0E00BC0E7E3F0E008C0E4E3F0E0FC
:1000B00005C0E1E3F0E002C0EAE3F0E0442319F018
:1000C000413069F00895208181E090E002C0880FFE
:1000D000991F6A95E2F78095822380830895208195
:1000E00081E090E002C0880F991F6A95E2F7822BA9
:1000F00080830895CF93DF93813041F080F0823088
:1001000041F0833049F0C0E0D0E00BC0C8E3D0E05C
:1001100008C0C5E3D0E005C0C2E3D0E002C0CBE335
:10012000D0E0862F90E08830910508F067C0FC0190
:10013000E65DFF4F0C945701442339F0413009F03C
:100140005DC088818160888359C088818E7F888363
:1001500055C0442339F0413009F050C08881826095
:1001600088834CC088818D7F888348C0442339F0C0
:10017000413009F043C08881846088833FC0888112
:100180008B7F88833BC0442331F04130B9F58881AF
:100190008860888333C08881877F88832FC0442309
:1001A00031F0413059F588818061888327C088818A
:1001B0008F7E888323C0442331F04130F9F4888155
:1001C000806288831BC088818F7D888317C0442309
:1001D00031F0413099F48881806488830FC0888130
:1001E0008F7B88830BC0442331F0413039F4888100
:1001F0008068888303C088818F778883DF91CF915F
:1002000008950E941B01C0E0D0E011C0FE01E05A39
:10021000FF4F608182E00E9429012FEF83ED90E380
:10022000215080409040E1F700C000002196CA3084
:10023000D10564F3E8CF41E062E081E00E9449002B
:1002400041E061E081E00E9449008AB3806F8ABB8F
:100250000895CF93C62F813069F08230B1F441E028
:1002600062E081E00E947A0040E061E081E00E946B
:100270007A0015C040E062E081E00E947A0041E02F
:1002800061E081E00E947A000AC040E062E081E023
:100290000E947A0040E061E081E00E947A008BB326
:1002A0008F708BBB8BB3C82BCBBBCF910895EE0F58
:0E02B000FF1F0590F491E02D0994F894FFCF04
:0A02BE00A0102030405060708090C6
:00000001FF
