:100000000C9432000C943C010C9444000C94440079
:100010000C9444000C9444000C9444000C94440050
:100020000C9444000C9444000C9444000C94440040
:100030000C9444000C9444000C9444000C94440030
:100040000C9444000C9444000C9444000C94440020
:100050000C9444006E0074007A00800086008C00CE
:100060009200980011241FBECFE5D8E0DEBFCDBFBF
:1000700020E0A0E6B0E001C01D92A036B207E1F793
:100080000E9467010C949C010C940000442319F019
:10009000413071F00895FC01408121E030E002C060
:1000A000220F331F6A95E2F72095242320830895B9
:1000B000FC01408121E030E002C0220F331F6A952D
:1000C000E2F7242B20830895462F50E04830510555
:1000D00098F5FA01E65DFF4F0C949601FC01308122
:1000E00021E0232720830895FC01308122E023278B
:1000F00020830895FC01308124E023272083089584
:10010000FC01308128E0232720830895FC01308101
:1001100020E1232720830895FC01308120E223275A
:1001200020830895FC01308120E423272083089553
:10013000FC012081205820830895813059F120F05E
:10014000823009F44DC00895613099F0C8F06230F2
:1001500049F06330D9F485B78E7F85BF85B78D7F31
:1001600085BF14C085B7816085BF85B78D7F85BF8A
:100170000DC085B78E7F85BF85B7826085BF06C0FD
:1001800085B7816085BF85B7826085BF8BB7806486
:100190008BBF0895613099F0C8F0623049F0633048
:1001A000D9F485B78B7F85BF85B7877F85BF14C09E
:1001B00085B7846085BF85B7877F85BF0DC085B74C
:1001C0008B7F85BF85B7886085BF06C085B7846093
:1001D00085BF85B7886085BF8BB780688BBF089562
:1001E000662331F0613039F484B78F7B84BF089582
:1001F00084B7806484BF0895882319F0813029F082
:1002000008958FB78F778FBF08958FB780688FBF9E
:100210000895813059F018F0823079F0089541E066
:1002200062E084E390E00E944600089541E067E0C8
:1002300084E390E00E944600089541E063E081E39A
:1002400090E00E9446000895813051F018F082300D
:1002500069F0089562E085E390E00E9464000895EB
:1002600067E085E390E00E946400089563E082E324
:1002700090E00E94640008951F920F920FB60F92B3
:1002800011242F933F934F935F936F937F938F939B
:100290009F93AF93BF93EF93FF9380E00E9424015D
:1002A00081E00E94240182E00E942401FF91EF91ED
:1002B000BF91AF919F918F917F916F915F914F917E
:1002C0003F912F910F900FBE0F901F90189560E0F7
:1002D00080E00E949D0081E00E94FC0082E00E947C
:1002E0007B0180E00E94090181E00E94090182E017
:1002F0000E940901FFCF813059F018F0823079F067
:10030000089540E060E087E390E00E944600089591
:1003100040E066E081E390E00E944600089540E0FE
:1003200062E081E390E00E9446000895EE0FFF1F17
:0C0330000590F491E02D0994F894FFCFA3
:00000001FF
