:100000000C9432000C944F000C944F000C944F0051
:100010000C944F000C944F000C945A020C944F0017
:100020000C944F000C944F000C944F000C944F0014
:100030000C944F000C944F000C944F000C944F0004
:100040000C944F000C944F000C944F000C944F00F4
:100050000C944F00B902C802D702E602F50203036E
:1000600011031F0311241FBECFE5D8E0DEBFCDBFB3
:1000700010E0A0E6B0E0E2E1F7E002C005900D92EA
:10008000A436B107D9F720E0A4E6B0E001C01D9284
:10009000A636B207E1F70E946E020C9487030C9417
:1000A0000000CF93C82F40E061E088E390E00E9419
:1000B000AC0240E062E088E390E00E94AC0241E0E4
:1000C00063E088E390E00E94AC028FE39FE1019738
:1000D000F1F700C000008BB38F708BBB8BB39C2FEC
:1000E000907F892B8BBB8FE39FE10197F1F700C0D5
:1000F000000040E063E088E390E00E94AC028FE300
:100100009FE10197F1F700C0000041E063E088E360
:1001100090E00E94AC028FE39FE10197F1F700C0ED
:1001200000008BB38F708BBB8BB3C295C07FC82B85
:10013000CBBB8FE39FE10197F1F700C0000040E0E7
:1001400063E088E390E00E94AC028FE39FE10197B7
:10015000F1F700C00000CF910895CF93C82F41E080
:1001600061E088E390E00E94AC0240E062E088E356
:1001700090E00E94AC0241E063E088E390E00E94DE
:10018000AC028FE39FE10197F1F700C000008BB351
:100190008F708BBB8BB39C2F907F892B8BBB8FE396
:1001A0009FE10197F1F700C0000040E063E088E3C1
:1001B00090E00E94AC028FE39FE10197F1F700C04D
:1001C000000041E063E088E390E00E94AC028FE32E
:1001D0009FE10197F1F700C000008BB38F708BBBDC
:1001E0008BB3C295C07FC82BCBBB8FE39FE1019738
:1001F000F1F700C0000040E063E088E390E00E9477
:10020000AC028FE39FE10197F1F700C00000CF91AE
:1002100008958F929F92AF92BF92CF92DF92EF920A
:10022000FF920F931F93CF93DF934B015C016031DB
:1002300027E272078105910568F020E137E240E08E
:1002400050E00E945F03022F10E080E3820F0E94C3
:10025000AD0002C000E010E038EE831633E09306F4
:10026000A104B104F0F020E137E2029FC001039F36
:10027000900D129F900D1124A5019401281B390B9C
:1002800041095109CA01B90128EE33E040E050E0CC
:100290000E945F03E22EF12C80E3820F0E94AD00EA
:1002A00002C0E12CF12C34E683169104A104B104C0
:1002B00068F120E137E2029FC001039F900D129F79
:1002C000900D1124A5019401281B390B41095109F6
:1002D000DA01C90148EE53E0E49E9001E59E300D3D
:1002E000F49E300D1124BC01CD01621B730B8109FA
:1002F000910924E630E040E050E00E945F03C22E06
:10030000D12C80E3820F0E94AD0002C0C12CD12C01
:1003100034E683169104A104B104B8F120E137E278
:10032000029FC001039F900D129F900D1124A50103
:100330009401281B390B41095109DA01C90148EE22
:1003400053E0E49E9001E59E300DF49E300D1124A3
:10035000821B930BA109B10944E64C9D90014D9D70
:10036000300D1124BC01CD01621B730B8109910971
:100370002AE030E040E050E00E945F03C22FD0E06E
:1003800080E3820F0E94AD0002C0C0E0D0E020E117
:1003900037E2029FC001039F900D129F900D112420
:1003A000A5019401281B390B41095109DA01C90142
:1003B00048EE53E0E49E9001E59E300DF49E300D32
:1003C0001124821B930BA109B10944E64C9D9001B5
:1003D0004D9D300D1124821B930BA109B1099E0183
:1003E000220F331FCC0FDD1FCC0FDD1FCC0FDD1F05
:1003F000C20FD31F8C1B9D0BA109B109805D0E9408
:10040000AD00DF91CF911F910F91FF90EF90DF90A2
:10041000CF90BF90AF909F908F90089581E00E9401
:10042000510008952FEF81EE94E0215080409040DC
:10043000E1F700C0000041E061E087E390E00E9446
:100440008E0241E062E087E390E00E948E0241E08C
:1004500063E087E390E00E948E0288E00E945100F2
:100460008AB3806F8ABB82E00E94510088E20E94BA
:1004700051008CE00E9451000E940E0208958130CC
:1004800059F018F0823079F0089540E060E087E399
:1004900090E00E948E02089540E066E081E390E0E3
:1004A0000E948E02089540E062E081E390E00E94A5
:1004B0008E0208951F920F920FB60F9211248F9300
:1004C0009F9386B597B590936500809364009F9144
:1004D0008F910F900FBE0F901F9018950E941202DF
:1004E00081E00E943F0280E690E00E94440381E0A8
:1004F0000E942F03609164007091650080E090E09D
:100500000E9409012FEF89E698E121508040904038
:10051000E1F700C000000E940E02ECCF442319F066
:10052000413071F00895FC01408121E030E002C0CB
:10053000220F331F6A95E2F7209524232083089524
:10054000FC01408121E030E002C0220F331F6A9598
:10055000E2F7242B208308950F931F93062F10E0BA
:100560000830110508F078C0F801E65DFF4F0C94E3
:100570008103442341F0413009F06EC0FC01208129
:100580002160208369C0FC0120812E7F208364C00C
:10059000442341F0413009F05FC0FC01208122601A
:1005A00020835AC0FC0120812D7F208355C0442325
:1005B00041F0413009F050C0FC01208124602083CB
:1005C0004BC0FC0120812B7F208346C0442341F097
:1005D000413009F041C0FC012081286020833CC0EB
:1005E000FC012081277F208337C0442339F041302C
:1005F00099F5FC012081206120832EC0FC0120811F
:100600002F7E208329C0442339F0413029F5FC0195
:1006100020812062208320C0FC0120812F7D208347
:100620001BC0442339F04130B9F4FC01208120641F
:10063000208312C0FC0120812F7B20830DC0442326
:1006400039F0413049F4FC0120812068208304C046
:10065000FC0120812F7720831F910F91089588231B
:1006600019F0813029F008958FB78F778FBF0895E3
:100670008FB780688FBF089519BC18BC1FBC1EBC03
:1006800089B7837C89BF0895CF93DF93FC012081D4
:10069000211112C0EC010E943C039EB58981892B77
:1006A0008EBD9EB58A81892B8EBD8EB580688EBD2C
:1006B00099B78B81892B89BFDF91CF910895A1E2F2
:1006C0001A2EAA1BBB1BFD010DC0AA1FBB1FEE1FCC
:1006D000FF1FA217B307E407F50720F0A21BB30B17
:1006E000E40BF50B661F771F881F991F1A9469F793
:1006F00060957095809590959B01AC01BD01CF01EF
:100700000895EE0FFF1F0590F491E02D0994F894E1
:02071000FFCF19
:04071200004004207F
:00000001FF
