:100000000C9432000C944F000C944F000C944F0051
:100010000C944F000C944F000C9481010C944F00F1
:100020000C944F000C944F000C944F000C944F0014
:100030000C944F000C944F000C944F000C944F0004
:100040000C944F000C944F000C944F000C944F00F4
:100050000C944F00E001EF01FE010D021C022A0288
:100060003802460211241FBECFE5D8E0DEBFCDBF67
:1000700010E0A0E6B0E0E6E8F5E002C005900D92E1
:10008000A436B107D9F720E0A4E6B0E001C01D9284
:10009000A636B207E1F70E9495010C94C1020C94B8
:1000A0000000CF93C82F40E061E088E390E00E9419
:1000B000D30140E062E088E390E00E94D30141E098
:1000C00063E088E390E00E94D3018FE39FE1019712
:1000D000F1F700C000008BB38F708BBB8BB39C2FEC
:1000E000907F892B8BBB8FE39FE10197F1F700C0D5
:1000F000000040E063E088E390E00E94D3018FE3DA
:100100009FE10197F1F700C0000041E063E088E360
:1001100090E00E94D3018FE39FE10197F1F700C0C7
:1001200000008BB38F708BBB8BB3C295C07FC82B85
:10013000CBBB8FE39FE10197F1F700C0000040E0E7
:1001400063E088E390E00E94D3018FE39FE1019791
:10015000F1F700C00000CF910895CF93C82F41E080
:1001600061E088E390E00E94D30140E062E088E330
:1001700090E00E94D30141E063E088E390E00E94B8
:10018000D3018FE39FE10197F1F700C000008BB32B
:100190008F708BBB8BB39C2F907F892B8BBB8FE396
:1001A0009FE10197F1F700C0000040E063E088E3C1
:1001B00090E00E94D3018FE39FE10197F1F700C027
:1001C000000041E063E088E390E00E94D3018FE308
:1001D0009FE10197F1F700C000008BB38F708BBBDC
:1001E0008BB3C295C07FC82BCBBB8FE39FE1019738
:1001F000F1F700C0000040E063E088E390E00E9477
:10020000D3018FE39FE10197F1F700C00000CF9188
:100210000895CF93DF93EC0103C00E94AD002196B7
:1002200088818111FACFDF91CF910895CF93DF9329
:10023000CDB7DEB761970FB6F894DEBF0FBECDBF66
:10024000DC01CB014AE0BE016F5F7F4F0E948C0250
:10025000CE0101960E94090161960FB6F894DEBFA7
:100260000FBECDBFDF91CF91089581E00E94510074
:1002700008952FEF81EE94E0215080409040E1F707
:1002800000C0000041E061E087E390E00E94B5011A
:1002900041E062E087E390E00E94B50141E063E065
:1002A00087E390E00E94B50188E00E9451008AB384
:1002B000806F8ABB82E00E94510088E20E94510058
:1002C0008CE00E9451000E9435010895813059F060
:1002D00018F0823079F0089540E060E087E390E024
:1002E0000E94B501089540E066E081E390E00E943D
:1002F000B501089540E062E081E390E00E94B5011D
:1003000008951F920F920FB60F9211248F939F930F
:1003100086B597B590936500809364009F918F9107
:100320000F900FBE0F901F9018950E94390181E029
:100330000E94660180E690E00E946B0281E00E94CC
:100340005602609164007091650080E090E00E9428
:1003500016012FEF89E698E1215080409040E1F7A7
:1003600000C000000E943501ECCF442319F0413059
:1003700071F00895FC01408121E030E002C0220FBD
:10038000331F6A95E2F72095242320830895FC010A
:10039000408121E030E002C0220F331F6A95E2F76E
:1003A000242B208308950F931F93062F10E008300D
:1003B000110508F078C0F801E65DFF4F0C94860245
:1003C000442341F0413009F06EC0FC0120812160DE
:1003D000208369C0FC0120812E7F208364C04423D8
:1003E00041F0413009F05FC0FC0120812260208390
:1003F0005AC0FC0120812D7F208355C0442341F049
:10040000413009F050C0FC012081246020834BC0A2
:10041000FC0120812B7F208346C0442341F04130E2
:1004200009F041C0FC012081286020833CC0FC0110
:100430002081277F208337C0442339F0413099F54C
:10044000FC012081206120832EC0FC0120812F7EB1
:10045000208329C0442339F0413029F5FC01208153
:100460002062208320C0FC0120812F7D20831BC0BF
:10047000442339F04130B9F4FC0120812064208309
:1004800012C0FC0120812F7B20830DC0442339F052
:10049000413049F4FC0120812068208304C0FC0124
:1004A00020812F7720831F910F910895882319F0C1
:1004B000813029F008958FB78F778FBF08958FB758
:1004C00080688FBF089519BC18BC1FBC1EBC89B7BB
:1004D000837C89BF0895CF93DF93FC012081211194
:1004E00012C0EC010E9463029EB58981892B8EBDEA
:1004F0009EB58A81892B8EBD8EB580688EBD99B7D9
:100500008B81892B89BFDF91CF910895EE0FFF1F5B
:100510000590F491E02D0994BB274A3031F49923DA
:1005200022F4BDE2909581959F4F0C949802BB27D1
:10053000FB015527AA27880F991FAA1FA41710F09F
:10054000A41B83955051B9F7A05DAA3308F0A95DAB
:10055000A193009779F7B111B1931192CB010C944B
:10056000B102DC01FC01672F71917723E1F732972B
:1005700004C07C916D9370836291AE17BF07C8F37E
:060580000895F894FFCF7E
:04058600004004200D
:00000001FF
