S01A000045787465726E616C5F496E746572727570742E737265639B
S11300000C9432000C9452010C943C000C943C006F
S11300100C943C000C943C000C943C000C943C006C
S11300200C943C000C943C000C943C000C943C005C
S11300300C943C000C943C000C943C000C943C004C
S11300400C943C000C943C000C943C000C943C003C
S11300500C943C00900095009A009F00A400A90015
S1130060AE00B30011241FBECFE5D8E0DEBFCDBF84
S11300700E947D010C94AF010C940000813041F08A
S113008080F0823041F0833049F0E0E0F0E00BC0D2
S1130090E7E3F0E008C0E4E3F0E005C0E1E3F0E00A
S11300A002C0EAE3F0E0442319F0413069F0089516
S11300B0208181E090E002C0880F991F6A95E2F7E1
S11300C08095822380830895208181E090E002C09E
S11300D0880F991F6A95E2F7822B80830895CF9346
S11300E0DF93813041F080F0823041F0833049F079
S11300F0C0E0D0E00BC0C8E3D0E008C0C5E3D0E066
S113010005C0C2E3D0E002C0CBE3D0E0862F90E08C
S11301108830910558F5FC01E65DFF4F0C94A90168
S1130120988181E08927888321C0988182E089278A
S113013088831CC0988184E08927888317C09881AC
S113014088E08927888312C0988180E18927888381
S11301500DC0988180E28927888308C0988180E453
S11301608927888303C0888180588883DF91CF9151
S11301700895813059F120F0823009F44DC008957A
S1130180613099F0C8F0623049F06330D9F485B732
S11301908E7F85BF85B78D7F85BF14C085B781608D
S11301A085BF85B78D7F85BF0DC085B78E7F85BF21
S11301B085B7826085BF06C085B7816085BF85B776
S11301C0826085BF8BB780648BBF0895613099F0DE
S11301D0C8F0623049F06330D9F485B78B7F85BFAE
S11301E085B7877F85BF14C085B7846085BF85B711
S11301F0877F85BF0DC085B78B7F85BF85B7886036
S113020085BF06C085B7846085BF85B7886085BF14
S11302108BB780688BBF0895662331F0613039F461
S113022084B78F7B84BF089584B7806484BF0895A6
S1130230882319F0813029F008958FB78F778FBF05
S113024008958FB780688FBF0895813051F018F0FA
S1130250823069F0089541E062E082E00E943E004D
S1130260089541E067E082E00E943E00089541E085
S113027063E083E00E943E000895813049F018F065
S1130280823059F0089562E082E00E946F00089580
S113029067E082E00E946F00089563E083E00E94BB
S11302A06F0008951F920F920FB60F9211242F938F
S11302B03F934F935F936F937F938F939F93AF93EA
S11302C0BF93EF93FF9380E00E943D0181E00E9481
S11302D03D0182E00E943D01FF91EF91BF91AF91FA
S11302E09F918F917F916F915F914F913F912F914A
S11302F00F900FBE0F901F90189560E080E00E9451
S1130300B90081E00E94180182E00E94910180E01E
S11303100E94250181E00E94250182E00E942501BE
S1130320FFCF813051F018F0823069F0089540E039
S113033060E081E00E943E00089540E066E083E0D2
S11303400E943E00089540E062E083E00E943E0087
S11303500895EE0FFF1F0590F491E02D0994F89491
S1050360FFCFC9
S9030000FC
