S00B000050574D2E7372656325
S11300000C9432000C944F000C944F000C944F004D
S11300100C944F000C944F000C944F000C944F0020
S11300200C944F000C944F000C944F000C944F0010
S11300300C944F000C944F000C944F000C944F0000
S11300400C944F000C944F000C944F000C944F00F0
S11300500C944F00D600E500F400030112012001C6
S11300602E013C0111241FBECFE5D8E0DEBFCDBF79
S113007010E0A0E6B0E0E2E8F9E002C005900D92DD
S1130080AA36B107D9F720E0AAE6B0E001C01D9274
S1130090AC36B207E1F70E94A4000C94BF040C94A0
S11300A0000041E065E084E390E00E94AB0041E0A1
S11300B066E084E390E00E94AB0041E067E081E306
S11300C090E00E94AB0080E690E00E945401089505
S11300D0CF93C62F882319F0813071F019C041E005
S11300E065E085E390E00E94C90040E066E085E3B6
S11300F090E00E94C9000CC040E065E085E390E018
S11301000E94C90041E066E085E390E00E94C900D6
S1130110C13059F018F0C23079F014C044E150E015
S113012060E382E00E947E020DC042E350E060E39F
S113013082E00E947E0206C04AE550E060E382E06D
S11301400E947E02CF9108950E94510061E081E0F7
S11301500E946800FBCF442319F0413071F00895E8
S1130160FC01408121E030E002C0220F331F6A9578
S1130170E2F72095242320830895FC01408121E0A7
S113018030E002C0220F331F6A95E2F7242B20834C
S113019008950F931F93062F10E00830110508F0FF
S11301A078C0F801E65DFF4F0C94AA04442341F0A3
S11301B0413009F06EC0FC0120812160208369C0B8
S11301C0FC0120812E7F208364C0442341F0413010
S11301D009F05FC0FC012081226020835AC0FC0129
S11301E020812D7F208355C0442341F0413009F004
S11301F050C0FC012081246020834BC0FC0120817D
S11302002B7F208346C0442341F0413009F041C094
S1130210FC012081286020833CC0FC012081277FD1
S1130220208337C0442339F0413099F5FC01208103
S1130230206120832EC0FC0120812F7E208329C0D1
S1130240442339F0413029F5FC01208120622083C8
S113025020C0FC0120812F7D20831BC0442339F062
S11302604130B9F4FC0120812064208312C0FC01D8
S113027020812F7B20830DC0442339F0413049F481
S1130280FC0120812068208304C0FC0120812F7799
S113029020831F910F91089519BC18BC1FBC1EBC6C
S11302A089B7837C89BF0895CF92DF92EF92FF9242
S11302B00F931F93CF93DF93FC018081813009F466
S11302C03FC020F0823009F4D7C00FC113BE1CBE5A
S11302D012BE93B78181892B83BF93B78381892B06
S11302E083BF93B78281892B83BF8381803219F0C6
S11302F0803381F0FAC020E030E0368136952795CE
S113030036952795ABE7B4E10E94B004969587959E
S11303108CBFEBC08681978140E0489F9001499F44
S1130320300D381B11243C59369527953695279561
S1130330ABE7B4E10E94B004969587958CBFD5C015
S1130340EF010E944C018981803479F08834C9F42A
S11303508FB58E7F8FBD8FB582608FBD8EB588605F
S11303608EBD8EB580618EBD0CC08FB581608FBD92
S11303708FB582608FBD8EB5877F8EBD8EB580614F
S11303808EBD088519856C817D8180E090E00E9496
S1130390AF039B01AC0160E070E08AE794E40E9443
S11303A00E036B017C01B80180E090E00E94AF0372
S11303B0A70196010E943D049B01AC0160E074E238
S11303C084E79BE40E940E030E948003615071093C
S11303D070936B0060936A0077BD66BD8B81803239
S11303E019F0803309F143C08FB58F7B8FBD8FB572
S11303F080688FBD4E815F8180916A0090916B000F
S1130400489F9001499F300D589F300D1124369517
S1130410279536952795ABE7B4E10E94B0049695ED
S113042087959BBD8ABD23C08FB580648FBD8FB572
S113043080688FBD2E813F8184E690E0821B930B00
S113044040916A0050916B00849F9001859F300D0C
S1130450949F300D11243695279536952795ABE753
S1130460B4E10E94B004969587959BBD8ABD9EB564
S11304708A81892B8EBD39C015BC13BC14BC95B5BB
S11304808181892B85BD95B58381892B85BD95B5E2
S11304908281892B85BD8381803219F0803381F07C
S11304A024C020E030E0368136952795369527958F
S11304B0ABE7B4E10E94B0049695879583BD15C05F
S11304C08681978140E0489F9001499F300D381BF9
S11304D011243C593695279536952795ABE7B4E119
S11304E00E94B0049695879583BDDF91CF911F91AB
S11304F00F91FF90EF90DF90CF900895813069F1D4
S113050020F0823009F462C00895603219F060333B
S113051081F00895542F44279A01369527953695EE
S11305202795ABE7B4E10E94B004969587958CBFFC
S1130530089580E0849F9001859F300D341B112421
S11305403C593695279536952795ABE7B4E10E943B
S1130550B004969587958CBF0895603219F0603386
S1130560C9F0089580916A0090916B00489F9001B2
S1130570499F300D589F300D112436952795369597
S11305802795ABE7B4E10E94B004969587959BBD8F
S11305908ABD089584E690E0841B950B40916A001F
S11305A050916B00849F9001859F300D949F300D76
S11305B011243695279536952795ABE7B4E10E942B
S11305C0B004969587959BBD8ABD0895603219F055
S11305D0603381F00895542F44279A013695279566
S11305E036952795ABE7B4E10E94B00496958795BC
S11305F083BD089580E0849F9001859F300D341B56
S113060011243C593695279536952795ABE7B4E1E7
S11306100E94B0049695879583BD08950E94220395
S11306200C9403040E94FC0358F00E94F50340F06C
S113063029F45F3F29F00C94EC0351110C94370416
S11306400C94F2030E94140468F39923B1F3552324
S113065091F3951B550BBB27AA27621773078407D1
S113066038F09F5F5F4F220F331F441FAA1FA9F367
S113067035D00E2E3AF0E0E832D091505040E69555
S1130680001CCAF72BD0FE2F29D0660F771F881FB6
S1130690BB1F261737074807AB07B0E809F0BB0BA9
S11306A0802DBF01FF2793585F4F3AF09E3F5105BD
S11306B078F00C94EC030C9437045F3FE4F3983E19
S11306C0D4F3869577956795B795F7959F5FC9F7A6
S11306D0880F911D9695879597F90895E1E0660F27
S11306E0771F881FBB1F621773078407BA0720F0A0
S11306F0621B730B840BBA0BEE1F88F7E095089509
S11307000E941C0488F09F5798F0B92F9927B7517D
S1130710B0F0E1F0660F771F881F991F1AF0BA95A1
S1130720C9F714C0B13091F00E943604B1E00895C5
S11307300C943604672F782F8827B85F39F0B93FB7
S1130740CCF3869577956795B395D9F73EF4909554
S11307508095709561957F4F8F4F9F4F0895E894D2
S113076009C097FB3EF490958095709561957F4FF5
S11307708F4F9F4F9923A9F0F92F96E9BB279395A3
S1130780F695879577956795B795F111F8CFFAF4B3
S1130790BB0F11F460FF1BC06F5F7F4F8F4F9F4FE4
S11307A016C0882311F096E911C0772321F09EE842
S11307B0872F762F05C0662371F096E8862F70E0A8
S11307C060E02AF09A95660F771F881FDAF7880F82
S11307D09695879597F9089597F99F6780E870E053
S11307E060E008959FEF80EC089500240A941616A3
S11307F0170618060906089500240A94121613060B
S1130800140605060895092E0394000C11F4882398
S113081052F0BB0F40F4BF2B11F460FF04C06F5FB4
S11308207F4F8F4F9F4F089557FD9058440F551F8A
S113083059F05F3F71F04795880F97FB991F61F05E
S11308409F3F79F087950895121613061406551FD5
S1130850F2CF4695F1DF08C0161617061806991F41
S1130860F1CF86957105610508940895E894BB2736
S113087066277727CB0197F908950E9450040C94BA
S113088003040E94F50338F00E94FC0320F0952332
S113089011F00C94EC030C94F20311240C9437041F
S11308A00E94140470F3959FC1F3950F50E0551FF7
S11308B0629FF001729FBB27F00DB11D639FAA27B1
S11308C0F00DB11DAA1F649F6627B00DA11D661F00
S11308D0829F2227B00DA11D621F739FB00DA11D21
S11308E0621F839FA00D611D221F749F3327A00DDB
S11308F0611D231F849F600D211D822F762F6A2F77
S113090011249F5750409AF0F1F088234AF0EE0FDB
S1130910FF1FBB1F661F771F881F91505040A9F708
S11309209E3F510580F00C94EC030C9437045F3F18
S1130930E4F3983ED4F3869577956795B795F79544
S1130940E7959F5FC1F7FE2B880F911D96958795BC
S113095097F90895EE0FFF1F0590F491E02D099487
S1130960A29FB001B39FC001A39F700D811D1124EC
S1130970911DB29F700D811D1124911D0895F8944D
S1050980FFCFA3
S10D09820248033001004600400063
S9030000FC
