S01E0000537465707065724D6F746F725F496E746572666163652E7372656322
S11300000C942A000C9447000C9447000C9447006D
S11300100C9447000C9447000C9447000C94470040
S11300200C9447000C9447000C9447000C94470030
S11300300C9447000C9447000C9447000C94470020
S11300400C9447000C9447000C9447000C94470010
S11300500C94470011241FBECFE5D8E0DEBFCDBF0E
S113006010E0A0E6B0E0E0E4F1E002C005900D92FB
S1130070A436B107D9F720E0A4E6B0E001C01D9290
S1130080A436B207E1F70E9467000C949E000C941A
S11300900000442319F0413071F00895FC014081BF
S11300A021E030E002C0220F331F6A95E2F7209569
S11300B0242320830895FC01408121E030E002C024
S11300C0220F331F6A95E2F7242B208308950E94A0
S11300D06C000E948500FDCF41E064E08AE390E07B
S11300E00E94490041E065E08AE390E00E944900F3
S11300F041E066E08AE390E00E94490041E067E065
S11301008AE390E00E944900089583E014C09BB301
S11301109F709BBB2BB3E82F082E000CFF0BE05AFB
S1130120FF4F9081922B9BBBEFEDFEE23197F1F7ED
S113013000C000008150882354F7E7CFF894FFCF24
S107014010204080C7
S9030000FC
