S01500004C43445F496E746572666163652E737265634C
S11300000C9432000C9447000C9447000C94470065
S11300100C9447000C9447000C9447000C94470040
S11300200C9447000C9447000C9447000C94470030
S11300300C9447000C9447000C9447000C94470020
S11300400C9447000C9447000C9447000C94470010
S11300500C944700740083009200A100B000BE001D
S1130060CC00DA0011241FBECFE5D8E0DEBFCDBF3F
S113007010E0A0E6B0E0E6E0F5E002C005900D92E5
S1130080A637B107D9F70E9428020C9481020C9478
S11300900000442319F0413071F00895FC014081BF
S11300A021E030E002C0220F331F6A95E2F7209569
S11300B0242320830895FC01408121E030E002C024
S11300C0220F331F6A95E2F7242B208308950F93A0
S11300D01F93062F10E00830110508F078C0F801CE
S11300E0E65DFF4F0C944602442341F0413009F091
S11300F06EC0FC0120812160208369C0FC01208145
S11301002E7F208364C0442341F0413009F05FC056
S1130110FC012081226020835AC0FC0120812D7FB4
S1130120208355C0442341F0413009F050C0FC0104
S11301302081246020834BC0FC0120812B7F2083FD
S113014046C0442341F0413009F041C0FC01208104
S1130150286020833CC0FC012081277F208337C096
S1130160442339F0413099F5FC012081206120833A
S11301702EC0FC0120812F7E208329C0442339F026
S1130180413029F5FC0120812062208320C0FC013C
S113019020812F7D20831BC0442339F04130B9F4E2
S11301A0FC0120812064208312C0FC0120812F7B6C
S11301B020830DC0442339F0413049F4FC012081EF
S11301C02068208304C0FC0120812F7720831F91A5
S11301D00F910895CF93C82F40E061E088E390E049
S11301E00E94670040E062E088E390E00E946700BC
S11301F041E063E088E390E00E9467008FE39FE1C1
S11302000197F1F700C000008BB38F708BBB8BB3E9
S11302109C2F907F892B8BBB8FE39FE10197F1F794
S113022000C0000040E063E088E390E00E946700C3
S11302308FE39FE10197F1F700C0000041E063E024
S113024088E390E00E9467008FE39FE10197F1F754
S113025000C000008BB38F708BBB8BB3C295C07F83
S1130260C82BCBBB8FE39FE10197F1F700C00000DF
S113027040E063E088E390E00E9467008FE39FE141
S11302800197F1F700C00000CF910895CF93C82FD4
S113029041E061E088E390E00E94670040E062E0B2
S11302A088E390E00E94670041E063E088E390E027
S11302B00E9467008FE39FE10197F1F700C00000FF
S11302C08BB38F708BBB8BB39C2F907F892B8BBB95
S11302D08FE39FE10197F1F700C0000040E063E085
S11302E088E390E00E9467008FE39FE10197F1F7B4
S11302F000C0000041E063E088E390E00E946700F2
S11303008FE39FE10197F1F700C000008BB38F707A
S11303108BBB8BB3C295C07FC82BCBBB8FE39FE154
S11303200197F1F700C0000040E063E088E390E04B
S11303300E9467008FE39FE10197F1F700C000007E
S1130340CF910895CF93DF93EC0103C00E9446013F
S1130350219688818111FACFDF91CF910895813060
S113036039F058F0823031F0833031F060E005C06C
S1130370606403C0606101C06065862F80680E946C
S1130380EA008FE39FE10197F1F700C000000895B0
S1130390CF93DF93CDB7DEB761970FB6F894DEBF86
S11303A00FBECDBF4AE0BE016F5F7F4F90E00E9459
S11303B04C02CE0101960E94A20161960FB6F894F8
S11303C0DEBF0FBECDBFDF91CF91089580E10E94C3
S11303D0EA008FE39FE10197F1F700C00000089560
S11303E088E10E94EA008FE39FE10197F1F700C0E2
S11303F00000089581E00E94EA0008952FEF89EF3C
S113040090E0215080409040E1F700C0000041E0BE
S113041061E087E390E00E94490041E062E087E305
S113042090E00E94490041E063E087E390E00E948D
S113043049008AB3806F8ABB82E00E94EA0088E2A6
S11304400E94EA008CE00E94EA000E94FA010895EA
S11304500E94FE010E94F00160E080E00E94AF0172
S113046080E690E00E94A20162E081E00E94AF0178
S113047086E690E00E94A20167E080E00E94AF015E
S11304800E94E60188E90E94C801E4CFEE0FFF1F35
S11304900590F491E02D0994BB274A3031F4992357
S11304A022F4BDE2909581959F4F0C945802BB278E
S11304B0FB015527AA27880F991FAA1FA41710F01C
S11304C0A41B83955051B9F7A05DAA3308F0A95D28
S11304D0A193009779F7B111B1931192CB010C94C8
S11304E07102DC01FC01672F71917723E1F73297E8
S11304F004C07C916D9370836291AE17BF07C8F3FB
S10905000895F894FFCFFA
S113050648657921210057656C636F6D6520746FAA
S1090516204C43440000E8
S9030000FC
