:100000000C943A000C9444000C9444000C9444006A
:100010000C9444000C9444000C9444000C94440050
:100020000C9444000C9444000C9444000C94440040
:100030000C9444000C9444000C9444000C94440030
:100040000C9444000C9444000C9444000C94440020
:100050000C94440098009D00A200A700AC00B100E1
:10006000B600BB00E300E600EC00F400FE0008016F
:100070001401210111241FBECFE5D8E0DEBFCDBFA2
:100080000E9457010C94CD010C940000813041F086
:1000900080F0823041F0833049F0E0E0F0E00BC0C6
:1000A000E7E3F0E008C0E4E3F0E005C0E1E3F0E0FE
:1000B00002C0EAE3F0E0442319F0413069F008950A
:1000C000208181E090E002C0880F991F6A95E2F7D5
:1000D0008095822380830895208181E090E002C092
:1000E000880F991F6A95E2F7822B80830895CF933A
:1000F000DF93813041F080F0823041F0833049F06D
:10010000C0E0D0E00BC0C8E3D0E008C0C5E3D0E059
:1001100005C0C2E3D0E002C0CBE3D0E0862F90E080
:100120008830910558F5FC01E65DFF4F0C94C7013E
:10013000988181E08927888321C0988182E089277E
:1001400088831CC0988184E08927888317C09881A0
:1001500088E08927888312C0988180E18927888375
:100160000DC0988180E28927888308C0988180E447
:100170008927888303C0888180588883DF91CF9145
:100180000895CF93DF93813041F080F0823041F0C9
:10019000833049F0C0E0D0E00BC0C6E3D0E008C037
:1001A000C3E3D0E005C0C0E3D0E002C0C9E3D0E0C3
:1001B000862F90E08830910508F048C0FC01EE5C85
:1001C000FF4F0C94C7018881817041C08881827083
:1001D00090E0969587953BC08881847090E09695D5
:1001E00087959695879533C08881887090E096951D
:1001F0008795969587959695879529C08881807172
:1002000090E0929582958F7089279F7089271FC0F3
:100210008881807290E096958795929582958F70EF
:1002200089279F70892713C08881807490E00024FB
:10023000880F991F001C880F991F001C892F902D73
:1002400006C08881881F8827881F01C080E0DF9151
:10025000CF910895813051F018F0823069F00895FF
:1002600041E062E082E00E944600089541E067E0DC
:1002700082E00E944600089541E063E083E00E942E
:1002800046000895813049F018F0823059F0089501
:1002900062E082E00E947700089567E082E00E94B9
:1002A0007700089563E083E00E947700089580E07E
:1002B0000E942A0181E00E942A0182E00E942A0114
:1002C00080E00E94990181E00E94990180E00E94F3
:1002D000B1018823D9F380E00E9442012FEF85EA23
:1002E0009EE0215080409040E1F700C0000080E097
:1002F0000E94420181E00E9442012FEF85EA9EE0C8
:10030000215080409040E1F700C0000081E00E9451
:10031000420182E00E9442012FEF85EA9EE02150D7
:1003200080409040E1F700C0000082E00E9442015E
:10033000D2CF813051F018F0823069F0089540E05A
:1003400060E081E00E944600089540E066E083E0BE
:100350000E944600089540E062E083E00E9446006B
:100360000895813049F018F0823059F00FC060E0F4
:1003700081E00E94C100089566E083E00E94C10010
:10038000089562E083E00E94C10008950895EE0F91
:0E039000FF1F0590F491E02D0994F894FFCF23
:00000001FF
